:100000000C942A000C943F000C943F000C943F0089
:100010000C943F000C943F000C943F000C943F0064
:100020000C943F000C943F000C943F000C943F0054
:100030000C943F000C943F000C943F000C943F0044
:100040000C943F000C943F000C943F000C943F0034
:100050000C943F0011241FBECFE5D8E0DEBFCDBF1A
:1000600010E0A0E6B0E0E4E4F1E002C005900D92FB
:10007000AA36B107D9F70E9441000C94A0000C9455
:1000800000008EEF8ABB8FEF84BB11BA90E082999B
:100090000DC09336E9F09F5F2FEF34E38CE02150E1
:1000A00030408040E1F700C0000015C083990DC0CA
:1000B000992389F09150EFEFF4E32CE0E150F04008
:1000C0002040E1F700C0000006C0849B03C003C0CD
:1000D00090E001C090E085B3806885BB85B38F7BDD
:1000E00085BB2DEC929F212D1124269526952695D2
:1000F00030E0F901E05AFF4F80818BBBEDEEF2E07A
:100100003197F1F700C0000085B3806485BB85B3EB
:100110008F7785BB46EF4203F001439FF00D11241A
:10012000E90FF11DE05AFF4F80818BBB85B38F77BC
:1001300085BBEDEEF2E03197F1F700C00000A7CFEC
:04014000F894FFCF61
:0A0144007E0CB69ECCDAFA0EFEDE49
:00000001FF
